{
  "_format": "hh-sol-artifact-1",
  "contractName": "Raffle",
  "sourceName": "contracts/Raffle.sol",
  "abi": [
    {
      "inputs": [
        {
          "internalType": "address",
          "name": "vrfCoordinatorV2",
          "type": "address"
        },
        {
          "internalType": "uint256",
          "name": "entranceFee",
          "type": "uint256"
        },
        {
          "internalType": "bytes32",
          "name": "gasLane",
          "type": "bytes32"
        },
        {
          "internalType": "uint64",
          "name": "subscriptionId",
          "type": "uint64"
        },
        {
          "internalType": "uint32",
          "name": "callbackGasLimit",
          "type": "uint32"
        },
        {
          "internalType": "uint256",
          "name": "interval",
          "type": "uint256"
        }
      ],
      "stateMutability": "nonpayable",
      "type": "constructor"
    },
    {
      "inputs": [
        {
          "internalType": "address",
          "name": "have",
          "type": "address"
        },
        {
          "internalType": "address",
          "name": "want",
          "type": "address"
        }
      ],
      "name": "OnlyCoordinatorCanFulfill",
      "type": "error"
    },
    {
      "inputs": [],
      "name": "Raffle__NotEnoughETHEntered",
      "type": "error"
    },
    {
      "inputs": [],
      "name": "Raffle__NotOpen",
      "type": "error"
    },
    {
      "inputs": [],
      "name": "Raffle__TransferFailed",
      "type": "error"
    },
    {
      "inputs": [
        {
          "internalType": "uint256",
          "name": "currentBalance",
          "type": "uint256"
        },
        {
          "internalType": "uint256",
          "name": "numPlayers",
          "type": "uint256"
        },
        {
          "internalType": "uint256",
          "name": "raffleState",
          "type": "uint256"
        }
      ],
      "name": "Raffle__UpkeepNotNeeded",
      "type": "error"
    },
    {
      "anonymous": false,
      "inputs": [
        {
          "indexed": true,
          "internalType": "address",
          "name": "player",
          "type": "address"
        }
      ],
      "name": "RaffleEnter",
      "type": "event"
    },
    {
      "anonymous": false,
      "inputs": [
        {
          "indexed": true,
          "internalType": "uint256",
          "name": "requestId",
          "type": "uint256"
        }
      ],
      "name": "RequestedRaffleWinner",
      "type": "event"
    },
    {
      "anonymous": false,
      "inputs": [
        {
          "indexed": true,
          "internalType": "address",
          "name": "winner",
          "type": "address"
        }
      ],
      "name": "WinnerPicked",
      "type": "event"
    },
    {
      "inputs": [
        {
          "internalType": "bytes",
          "name": "",
          "type": "bytes"
        }
      ],
      "name": "checkUpKeep",
      "outputs": [
        {
          "internalType": "bool",
          "name": "upkeepNeeded",
          "type": "bool"
        },
        {
          "internalType": "bytes",
          "name": "",
          "type": "bytes"
        }
      ],
      "stateMutability": "nonpayable",
      "type": "function"
    },
    {
      "inputs": [],
      "name": "enterRaffle",
      "outputs": [],
      "stateMutability": "payable",
      "type": "function"
    },
    {
      "inputs": [],
      "name": "getEntranceFee",
      "outputs": [
        {
          "internalType": "uint256",
          "name": "",
          "type": "uint256"
        }
      ],
      "stateMutability": "view",
      "type": "function"
    },
    {
      "inputs": [],
      "name": "getInterval",
      "outputs": [
        {
          "internalType": "uint256",
          "name": "",
          "type": "uint256"
        }
      ],
      "stateMutability": "view",
      "type": "function"
    },
    {
      "inputs": [],
      "name": "getLatestTimeStamp",
      "outputs": [
        {
          "internalType": "uint256",
          "name": "",
          "type": "uint256"
        }
      ],
      "stateMutability": "view",
      "type": "function"
    },
    {
      "inputs": [],
      "name": "getNumWords",
      "outputs": [
        {
          "internalType": "uint256",
          "name": "",
          "type": "uint256"
        }
      ],
      "stateMutability": "pure",
      "type": "function"
    },
    {
      "inputs": [],
      "name": "getNumberOfPlayers",
      "outputs": [
        {
          "internalType": "uint256",
          "name": "",
          "type": "uint256"
        }
      ],
      "stateMutability": "view",
      "type": "function"
    },
    {
      "inputs": [
        {
          "internalType": "uint256",
          "name": "index",
          "type": "uint256"
        }
      ],
      "name": "getPlayer",
      "outputs": [
        {
          "internalType": "address",
          "name": "",
          "type": "address"
        }
      ],
      "stateMutability": "view",
      "type": "function"
    },
    {
      "inputs": [],
      "name": "getRaffleState",
      "outputs": [
        {
          "internalType": "enum Raffle.RaffleState",
          "name": "",
          "type": "uint8"
        }
      ],
      "stateMutability": "view",
      "type": "function"
    },
    {
      "inputs": [],
      "name": "getRecentWinner",
      "outputs": [
        {
          "internalType": "address",
          "name": "",
          "type": "address"
        }
      ],
      "stateMutability": "view",
      "type": "function"
    },
    {
      "inputs": [],
      "name": "getRequestConfirmations",
      "outputs": [
        {
          "internalType": "uint256",
          "name": "",
          "type": "uint256"
        }
      ],
      "stateMutability": "pure",
      "type": "function"
    },
    {
      "inputs": [
        {
          "internalType": "bytes",
          "name": "",
          "type": "bytes"
        }
      ],
      "name": "performUpkeep",
      "outputs": [],
      "stateMutability": "nonpayable",
      "type": "function"
    },
    {
      "inputs": [
        {
          "internalType": "uint256",
          "name": "requestId",
          "type": "uint256"
        },
        {
          "internalType": "uint256[]",
          "name": "randomWords",
          "type": "uint256[]"
        }
      ],
      "name": "rawFulfillRandomWords",
      "outputs": [],
      "stateMutability": "nonpayable",
      "type": "function"
    }
  ],
  "bytecode": "0x6101406040523480156200001257600080fd5b50604051620017ca380380620017ca833981810160405281019062000038919062000292565b858073ffffffffffffffffffffffffffffffffffffffff1660808173ffffffffffffffffffffffffffffffffffffffff1681525050508460a081815250508573ffffffffffffffffffffffffffffffffffffffff1660c08173ffffffffffffffffffffffffffffffffffffffff16815250508360e081815250508267ffffffffffffffff166101008167ffffffffffffffff16815250508163ffffffff166101208163ffffffff16815250506000600160146101000a81548160ff021916908360018111156200010d576200010c6200032e565b5b021790555042600281905550806003819055505050505050506200035d565b600080fd5b600073ffffffffffffffffffffffffffffffffffffffff82169050919050565b60006200015e8262000131565b9050919050565b620001708162000151565b81146200017c57600080fd5b50565b600081519050620001908162000165565b92915050565b6000819050919050565b620001ab8162000196565b8114620001b757600080fd5b50565b600081519050620001cb81620001a0565b92915050565b6000819050919050565b620001e681620001d1565b8114620001f257600080fd5b50565b6000815190506200020681620001db565b92915050565b600067ffffffffffffffff82169050919050565b6200022b816200020c565b81146200023757600080fd5b50565b6000815190506200024b8162000220565b92915050565b600063ffffffff82169050919050565b6200026c8162000251565b81146200027857600080fd5b50565b6000815190506200028c8162000261565b92915050565b60008060008060008060c08789031215620002b257620002b16200012c565b5b6000620002c289828a016200017f565b9650506020620002d589828a01620001ba565b9550506040620002e889828a01620001f5565b9450506060620002fb89828a016200023a565b93505060806200030e89828a016200027b565b92505060a06200032189828a01620001ba565b9150509295509295509295565b7f4e487b7100000000000000000000000000000000000000000000000000000000600052602160045260246000fd5b60805160a05160c05160e051610100516101205161140f620003bb60003960006106a50152600061068201526000610661015260006106250152600081816102fa01526103f7015260008181610337015261038b015261140f6000f3fe6080604052600436106100c25760003560e01c8063473f1ddc1161007f5780635f1b0fd8116100595780635f1b0fd81461023857806391ad27b414610263578063e55ae4e81461028e578063fd6673f5146102cb576100c2565b8063473f1ddc146101a457806353a2c19a146101cf5780635e6c102e146101fa576100c2565b806309bc33a7146100c7578063115cbaf5146100f25780631fe543e31461011d5780632cfcc53914610146578063320229eb146101505780634585e33b1461017b575b600080fd5b3480156100d357600080fd5b506100dc6102f6565b6040516100e99190610b90565b60405180910390f35b3480156100fe57600080fd5b5061010761031e565b6040516101149190610c22565b60405180910390f35b34801561012957600080fd5b50610144600480360381019061013f9190610dd6565b610335565b005b61014e6103f5565b005b34801561015c57600080fd5b50610165610564565b6040516101729190610b90565b60405180910390f35b34801561018757600080fd5b506101a2600480360381019061019d9190610e8d565b61056e565b005b3480156101b057600080fd5b506101b961076d565b6040516101c69190610f1b565b60405180910390f35b3480156101db57600080fd5b506101e4610797565b6040516101f19190610b90565b60405180910390f35b34801561020657600080fd5b50610221600480360381019061021c9190610feb565b6107a6565b60405161022f9291906110d7565b60405180910390f35b34801561024457600080fd5b5061024d610835565b60405161025a9190610b90565b60405180910390f35b34801561026f57600080fd5b50610278610842565b6040516102859190610b90565b60405180910390f35b34801561029a57600080fd5b506102b560048036038101906102b09190611107565b61084c565b6040516102c29190610f1b565b60405180910390f35b3480156102d757600080fd5b506102e0610893565b6040516102ed9190610b90565b60405180910390f35b60007f0000000000000000000000000000000000000000000000000000000000000000905090565b6000600160149054906101000a900460ff16905090565b7f000000000000000000000000000000000000000000000000000000000000000073ffffffffffffffffffffffffffffffffffffffff163373ffffffffffffffffffffffffffffffffffffffff16146103e757337f00000000000000000000000000000000000000000000000000000000000000006040517f1cf993f40000000000000000000000000000000000000000000000000000000081526004016103de929190611134565b60405180910390fd5b6103f1828261089f565b5050565b7f000000000000000000000000000000000000000000000000000000000000000034101561044f576040517fbd4e069500000000000000000000000000000000000000000000000000000000815260040160405180910390fd5b6000600181111561046357610462610bab565b5b600160149054906101000a900460ff16600181111561048557610484610bab565b5b146104bc576040517f1425571c00000000000000000000000000000000000000000000000000000000815260040160405180910390fd5b6000339080600181540180825580915050600190039060005260206000200160009091909190916101000a81548173ffffffffffffffffffffffffffffffffffffffff021916908373ffffffffffffffffffffffffffffffffffffffff1602179055503373ffffffffffffffffffffffffffffffffffffffff167f0805e1d667bddb8a95f0f09880cf94f403fb596ce79928d9f29b74203ba284d460405160405180910390a2565b6000600254905090565b6000610588604051806020016040528060008152506107a6565b509050806105f75747600080549050600160149054906101000a900460ff1660018111156105b9576105b8610bab565b5b6040517f584327aa0000000000000000000000000000000000000000000000000000000081526004016105ee9392919061115d565b60405180910390fd5b60018060146101000a81548160ff0219169083600181111561061c5761061b610bab565b5b021790555060007f000000000000000000000000000000000000000000000000000000000000000073ffffffffffffffffffffffffffffffffffffffff16635d3b1d307f00000000000000000000000000000000000000000000000000000000000000007f000000000000000000000000000000000000000000000000000000000000000060037f000000000000000000000000000000000000000000000000000000000000000060016040518663ffffffff1660e01b81526004016106e695949392919061120c565b602060405180830381600087803b15801561070057600080fd5b505af1158015610714573d6000803e3d6000fd5b505050506040513d601f19601f820116820180604052508101906107389190611274565b9050807fcd6e45c8998311cab7e9d4385596cac867e20a0587194b954fa3a731c93ce78b60405160405180910390a250505050565b6000600160009054906101000a900473ffffffffffffffffffffffffffffffffffffffff16905090565b6000600163ffffffff16905090565b600060606000600160149054906101000a900460ff1660018111156107ce576107cd610bab565b5b600060018111156107e2576107e1610bab565b5b1490506000600354600254426107f891906112d0565b119050600080600080549050119050600080471190508380156108185750825b80156108215750815b801561082a5750805b955050505050915091565b6000600361ffff16905090565b6000600354905090565b600080828154811061086157610860611304565b5b9060005260206000200160009054906101000a900473ffffffffffffffffffffffffffffffffffffffff169050919050565b60008080549050905090565b60008080549050826000815181106108ba576108b9611304565b5b60200260200101516108cc9190611362565b905060008082815481106108e3576108e2611304565b5b9060005260206000200160009054906101000a900473ffffffffffffffffffffffffffffffffffffffff16905080600160006101000a81548173ffffffffffffffffffffffffffffffffffffffff021916908373ffffffffffffffffffffffffffffffffffffffff1602179055506000600160146101000a81548160ff0219169083600181111561097757610976610bab565b5b0217905550600067ffffffffffffffff81111561099757610996610c93565b5b6040519080825280602002602001820160405280156109c55781602001602082028036833780820191505090505b50600090805190602001906109db929190610ad0565b504260028190555060008173ffffffffffffffffffffffffffffffffffffffff1647604051610a09906113c4565b60006040518083038185875af1925050503d8060008114610a46576040519150601f19603f3d011682016040523d82523d6000602084013e610a4b565b606091505b5050905080610a86576040517fa1d04b3900000000000000000000000000000000000000000000000000000000815260040160405180910390fd5b8173ffffffffffffffffffffffffffffffffffffffff167f5b690ec4a06fe979403046eaeea5b3ce38524683c3001f662c8b5a829632f7df60405160405180910390a25050505050565b828054828255906000526020600020908101928215610b49579160200282015b82811115610b485782518260006101000a81548173ffffffffffffffffffffffffffffffffffffffff021916908373ffffffffffffffffffffffffffffffffffffffff16021790555091602001919060010190610af0565b5b509050610b569190610b5a565b5090565b5b80821115610b73576000816000905550600101610b5b565b5090565b6000819050919050565b610b8a81610b77565b82525050565b6000602082019050610ba56000830184610b81565b92915050565b7f4e487b7100000000000000000000000000000000000000000000000000000000600052602160045260246000fd5b60028110610beb57610bea610bab565b5b50565b6000819050610bfc82610bda565b919050565b6000610c0c82610bee565b9050919050565b610c1c81610c01565b82525050565b6000602082019050610c376000830184610c13565b92915050565b6000604051905090565b600080fd5b600080fd5b610c5a81610b77565b8114610c6557600080fd5b50565b600081359050610c7781610c51565b92915050565b600080fd5b6000601f19601f8301169050919050565b7f4e487b7100000000000000000000000000000000000000000000000000000000600052604160045260246000fd5b610ccb82610c82565b810181811067ffffffffffffffff82111715610cea57610ce9610c93565b5b80604052505050565b6000610cfd610c3d565b9050610d098282610cc2565b919050565b600067ffffffffffffffff821115610d2957610d28610c93565b5b602082029050602081019050919050565b600080fd5b6000610d52610d4d84610d0e565b610cf3565b90508083825260208201905060208402830185811115610d7557610d74610d3a565b5b835b81811015610d9e5780610d8a8882610c68565b845260208401935050602081019050610d77565b5050509392505050565b600082601f830112610dbd57610dbc610c7d565b5b8135610dcd848260208601610d3f565b91505092915050565b60008060408385031215610ded57610dec610c47565b5b6000610dfb85828601610c68565b925050602083013567ffffffffffffffff811115610e1c57610e1b610c4c565b5b610e2885828601610da8565b9150509250929050565b600080fd5b60008083601f840112610e4d57610e4c610c7d565b5b8235905067ffffffffffffffff811115610e6a57610e69610e32565b5b602083019150836001820283011115610e8657610e85610d3a565b5b9250929050565b60008060208385031215610ea457610ea3610c47565b5b600083013567ffffffffffffffff811115610ec257610ec1610c4c565b5b610ece85828601610e37565b92509250509250929050565b600073ffffffffffffffffffffffffffffffffffffffff82169050919050565b6000610f0582610eda565b9050919050565b610f1581610efa565b82525050565b6000602082019050610f306000830184610f0c565b92915050565b600080fd5b600067ffffffffffffffff821115610f5657610f55610c93565b5b610f5f82610c82565b9050602081019050919050565b82818337600083830152505050565b6000610f8e610f8984610f3b565b610cf3565b905082815260208101848484011115610faa57610fa9610f36565b5b610fb5848285610f6c565b509392505050565b600082601f830112610fd257610fd1610c7d565b5b8135610fe2848260208601610f7b565b91505092915050565b60006020828403121561100157611000610c47565b5b600082013567ffffffffffffffff81111561101f5761101e610c4c565b5b61102b84828501610fbd565b91505092915050565b60008115159050919050565b61104981611034565b82525050565b600081519050919050565b600082825260208201905092915050565b60005b8381101561108957808201518184015260208101905061106e565b83811115611098576000848401525b50505050565b60006110a98261104f565b6110b3818561105a565b93506110c381856020860161106b565b6110cc81610c82565b840191505092915050565b60006040820190506110ec6000830185611040565b81810360208301526110fe818461109e565b90509392505050565b60006020828403121561111d5761111c610c47565b5b600061112b84828501610c68565b91505092915050565b60006040820190506111496000830185610f0c565b6111566020830184610f0c565b9392505050565b60006060820190506111726000830186610b81565b61117f6020830185610b81565b61118c6040830184610b81565b949350505050565b6000819050919050565b6111a781611194565b82525050565b600067ffffffffffffffff82169050919050565b6111ca816111ad565b82525050565b600061ffff82169050919050565b6111e7816111d0565b82525050565b600063ffffffff82169050919050565b611206816111ed565b82525050565b600060a082019050611221600083018861119e565b61122e60208301876111c1565b61123b60408301866111de565b61124860608301856111fd565b61125560808301846111fd565b9695505050505050565b60008151905061126e81610c51565b92915050565b60006020828403121561128a57611289610c47565b5b60006112988482850161125f565b91505092915050565b7f4e487b7100000000000000000000000000000000000000000000000000000000600052601160045260246000fd5b60006112db82610b77565b91506112e683610b77565b9250828210156112f9576112f86112a1565b5b828203905092915050565b7f4e487b7100000000000000000000000000000000000000000000000000000000600052603260045260246000fd5b7f4e487b7100000000000000000000000000000000000000000000000000000000600052601260045260246000fd5b600061136d82610b77565b915061137883610b77565b92508261138857611387611333565b5b828206905092915050565b600081905092915050565b50565b60006113ae600083611393565b91506113b98261139e565b600082019050919050565b60006113cf826113a1565b915081905091905056fea2646970667358221220e79c05e8bb4862e3615e0883bddb4880b88728fd0b856d13f6f2a7e93a66b7c964736f6c63430008090033",
  "linkReferences": {},
  "deployedLinkReferences": {}
}